{
  "contractName": "MyNonFungibleToken",
  "abi": [
    {
      "constant": true,
      "inputs": [],
      "name": "name",
      "outputs": [
        {
          "name": "",
          "type": "string"
        }
      ],
      "payable": false,
      "stateMutability": "view",
      "type": "function"
    },
    {
      "constant": true,
      "inputs": [
        {
          "name": "",
          "type": "uint256"
        }
      ],
      "name": "tokenIndexToOwner",
      "outputs": [
        {
          "name": "",
          "type": "address"
        }
      ],
      "payable": false,
      "stateMutability": "view",
      "type": "function"
    },
    {
      "constant": true,
      "inputs": [],
      "name": "symbol",
      "outputs": [
        {
          "name": "",
          "type": "string"
        }
      ],
      "payable": false,
      "stateMutability": "view",
      "type": "function"
    },
    {
      "constant": true,
      "inputs": [
        {
          "name": "",
          "type": "uint256"
        }
      ],
      "name": "tokenIndexToApproved",
      "outputs": [
        {
          "name": "",
          "type": "address"
        }
      ],
      "payable": false,
      "stateMutability": "view",
      "type": "function"
    },
    {
      "anonymous": false,
      "inputs": [
        {
          "indexed": false,
          "name": "owner",
          "type": "address"
        },
        {
          "indexed": false,
          "name": "tokenId",
          "type": "uint256"
        },
        {
          "indexed": false,
          "name": "shippingCompany",
          "type": "uint64"
        },
        {
          "indexed": false,
          "name": "receivingAddress",
          "type": "address"
        }
      ],
      "name": "createParcel",
      "type": "event"
    },
    {
      "anonymous": false,
      "inputs": [
        {
          "indexed": false,
          "name": "owner",
          "type": "address"
        },
        {
          "indexed": false,
          "name": "receiver",
          "type": "address"
        },
        {
          "indexed": false,
          "name": "tokenId",
          "type": "uint256"
        }
      ],
      "name": "handOff",
      "type": "event"
    },
    {
      "anonymous": false,
      "inputs": [
        {
          "indexed": false,
          "name": "deliverer",
          "type": "address"
        },
        {
          "indexed": false,
          "name": "name",
          "type": "uint64"
        },
        {
          "indexed": false,
          "name": "company",
          "type": "uint64"
        }
      ],
      "name": "registerDeliverer",
      "type": "event"
    },
    {
      "anonymous": false,
      "inputs": [
        {
          "indexed": false,
          "name": "from",
          "type": "address"
        },
        {
          "indexed": false,
          "name": "to",
          "type": "address"
        },
        {
          "indexed": false,
          "name": "tokenId",
          "type": "uint256"
        }
      ],
      "name": "Transfer",
      "type": "event"
    },
    {
      "anonymous": false,
      "inputs": [
        {
          "indexed": false,
          "name": "owner",
          "type": "address"
        },
        {
          "indexed": false,
          "name": "approved",
          "type": "address"
        },
        {
          "indexed": false,
          "name": "tokenId",
          "type": "uint256"
        }
      ],
      "name": "Approval",
      "type": "event"
    },
    {
      "constant": true,
      "inputs": [
        {
          "name": "_interfaceID",
          "type": "bytes4"
        }
      ],
      "name": "supportsInterface",
      "outputs": [
        {
          "name": "",
          "type": "bool"
        }
      ],
      "payable": false,
      "stateMutability": "view",
      "type": "function"
    },
    {
      "constant": true,
      "inputs": [],
      "name": "totalSupply",
      "outputs": [
        {
          "name": "",
          "type": "uint256"
        }
      ],
      "payable": false,
      "stateMutability": "view",
      "type": "function"
    },
    {
      "constant": true,
      "inputs": [
        {
          "name": "_owner",
          "type": "address"
        }
      ],
      "name": "balanceOf",
      "outputs": [
        {
          "name": "",
          "type": "uint256"
        }
      ],
      "payable": false,
      "stateMutability": "view",
      "type": "function"
    },
    {
      "constant": true,
      "inputs": [
        {
          "name": "_tokenId",
          "type": "uint256"
        }
      ],
      "name": "ownerOf",
      "outputs": [
        {
          "name": "owner",
          "type": "address"
        }
      ],
      "payable": false,
      "stateMutability": "view",
      "type": "function"
    },
    {
      "constant": false,
      "inputs": [
        {
          "name": "_to",
          "type": "address"
        },
        {
          "name": "_tokenId",
          "type": "uint256"
        }
      ],
      "name": "approve",
      "outputs": [],
      "payable": false,
      "stateMutability": "nonpayable",
      "type": "function"
    },
    {
      "constant": false,
      "inputs": [
        {
          "name": "_to",
          "type": "address"
        },
        {
          "name": "_tokenId",
          "type": "uint256"
        }
      ],
      "name": "transfer",
      "outputs": [],
      "payable": false,
      "stateMutability": "nonpayable",
      "type": "function"
    },
    {
      "constant": false,
      "inputs": [
        {
          "name": "_from",
          "type": "address"
        },
        {
          "name": "_to",
          "type": "address"
        },
        {
          "name": "_tokenId",
          "type": "uint256"
        }
      ],
      "name": "transferFrom",
      "outputs": [],
      "payable": false,
      "stateMutability": "nonpayable",
      "type": "function"
    },
    {
      "constant": true,
      "inputs": [
        {
          "name": "_owner",
          "type": "address"
        }
      ],
      "name": "tokensOfOwner",
      "outputs": [
        {
          "name": "",
          "type": "uint256[]"
        }
      ],
      "payable": false,
      "stateMutability": "view",
      "type": "function"
    },
    {
      "constant": false,
      "inputs": [
        {
          "name": "shippingCompany",
          "type": "uint64"
        },
        {
          "name": "receivingAddress",
          "type": "address"
        },
        {
          "name": "receivingPostalAddress",
          "type": "uint256"
        }
      ],
      "name": "mint",
      "outputs": [
        {
          "name": "",
          "type": "uint256"
        }
      ],
      "payable": false,
      "stateMutability": "nonpayable",
      "type": "function"
    },
    {
      "constant": true,
      "inputs": [
        {
          "name": "_tokenId",
          "type": "uint256"
        }
      ],
      "name": "getToken",
      "outputs": [
        {
          "name": "mintedBy",
          "type": "address"
        },
        {
          "name": "mintedAt",
          "type": "uint64"
        },
        {
          "name": "shippingCompany",
          "type": "uint64"
        },
        {
          "name": "receivingAddress",
          "type": "address"
        },
        {
          "name": "receivingPostalAddress",
          "type": "uint256"
        }
      ],
      "payable": false,
      "stateMutability": "view",
      "type": "function"
    }
  ],
  "bytecode": "0x608060405234801561001057600080fd5b50611728806100206000396000f3006080604052600436106100d0576000357c0100000000000000000000000000000000000000000000000000000000900463ffffffff16806301ffc9a7146100d557806306fdde0314610139578063095ea7b3146101c957806318160ddd146102165780631d36e06c1461024157806323b872dd146102ae5780636352211e1461031b57806370a08231146103885780638462151c146103df57806395d89b4114610477578063a8bd9c3214610507578063a9059cbb14610574578063e4b50cb8146105c1578063f2be45991461069e575b600080fd5b3480156100e157600080fd5b5061011f60048036038101908080357bffffffffffffffffffffffffffffffffffffffffffffffffffffffff19169060200190929190505050610713565b604051808215151515815260200191505060405180910390f35b34801561014557600080fd5b5061014e6109ed565b6040518080602001828103825283818151815260200191508051906020019080838360005b8381101561018e578082015181840152602081019050610173565b50505050905090810190601f1680156101bb5780820380516001836020036101000a031916815260200191505b509250505060405180910390f35b3480156101d557600080fd5b50610214600480360381019080803573ffffffffffffffffffffffffffffffffffffffff16906020019092919080359060200190929190505050610a26565b005b34801561022257600080fd5b5061022b610a49565b6040518082815260200191505060405180910390f35b34801561024d57600080fd5b5061026c60048036038101908080359060200190929190505050610a55565b604051808273ffffffffffffffffffffffffffffffffffffffff1673ffffffffffffffffffffffffffffffffffffffff16815260200191505060405180910390f35b3480156102ba57600080fd5b50610319600480360381019080803573ffffffffffffffffffffffffffffffffffffffff169060200190929190803573ffffffffffffffffffffffffffffffffffffffff16906020019092919080359060200190929190505050610a88565b005b34801561032757600080fd5b5061034660048036038101908080359060200190929190505050610b39565b604051808273ffffffffffffffffffffffffffffffffffffffff1673ffffffffffffffffffffffffffffffffffffffff16815260200191505060405180910390f35b34801561039457600080fd5b506103c9600480360381019080803573ffffffffffffffffffffffffffffffffffffffff169060200190929190505050610bb2565b6040518082815260200191505060405180910390f35b3480156103eb57600080fd5b50610420600480360381019080803573ffffffffffffffffffffffffffffffffffffffff169060200190929190505050610bfb565b6040518080602001828103825283818151815260200191508051906020019060200280838360005b83811015610463578082015181840152602081019050610448565b505050509050019250505060405180910390f35b34801561048357600080fd5b5061048c610d48565b6040518080602001828103825283818151815260200191508051906020019080838360005b838110156104cc5780820151818401526020810190506104b1565b50505050905090810190601f1680156104f95780820380516001836020036101000a031916815260200191505b509250505060405180910390f35b34801561051357600080fd5b5061053260048036038101908080359060200190929190505050610d81565b604051808273ffffffffffffffffffffffffffffffffffffffff1673ffffffffffffffffffffffffffffffffffffffff16815260200191505060405180910390f35b34801561058057600080fd5b506105bf600480360381019080803573ffffffffffffffffffffffffffffffffffffffff16906020019092919080359060200190929190505050610db4565b005b3480156105cd57600080fd5b506105ec60048036038101908080359060200190929190505050610e4f565b604051808673ffffffffffffffffffffffffffffffffffffffff1673ffffffffffffffffffffffffffffffffffffffff1681526020018567ffffffffffffffff1667ffffffffffffffff1681526020018467ffffffffffffffff1667ffffffffffffffff1681526020018373ffffffffffffffffffffffffffffffffffffffff1673ffffffffffffffffffffffffffffffffffffffff1681526020018281526020019550505050505060405180910390f35b3480156106aa57600080fd5b506106fd600480360381019080803567ffffffffffffffff169060200190929190803573ffffffffffffffffffffffffffffffffffffffff16906020019092919080359060200190929190505050610fd1565b6040518082815260200191505060405180910390f35b600060405180807f737570706f727473496e74657266616365286279746573342900000000000000815250601901905060405180910390207bffffffffffffffffffffffffffffffffffffffffffffffffffffffff1916827bffffffffffffffffffffffffffffffffffffffffffffffffffffffff191614806109e6575060405180807f746f6b656e734f664f776e6572286164647265737329000000000000000000008152506016019050604051809103902060405180807f7472616e7366657246726f6d28616464726573732c616464726573732c75696e81526020017f74323536290000000000000000000000000000000000000000000000000000008152506025019050604051809103902060405180807f7472616e7366657228616464726573732c75696e7432353629000000000000008152506019019050604051809103902060405180807f617070726f766528616464726573732c75696e743235362900000000000000008152506018019050604051809103902060405180807f6f776e65724f662875696e7432353629000000000000000000000000000000008152506010019050604051809103902060405180807f62616c616e63654f6628616464726573732900000000000000000000000000008152506012019050604051809103902060405180807f746f74616c537570706c79282900000000000000000000000000000000000000815250600d019050604051809103902060405180807f73796d626f6c28290000000000000000000000000000000000000000000000008152506008019050604051809103902060405180807f6e616d65282900000000000000000000000000000000000000000000000000008152506006019050604051809103902018181818181818187bffffffffffffffffffffffffffffffffffffffffffffffffffffffff1916827bffffffffffffffffffffffffffffffffffffffffffffffffffffffff1916145b9050919050565b6040805190810160405280600a81526020017f426c6f636b547261636b0000000000000000000000000000000000000000000081525081565b610a303382610fe8565b1515610a3b57600080fd5b610a458282611054565b5050565b60008080549050905090565b60036020528060005260406000206000915054906101000a900473ffffffffffffffffffffffffffffffffffffffff1681565b600073ffffffffffffffffffffffffffffffffffffffff168273ffffffffffffffffffffffffffffffffffffffff1614151515610ac457600080fd5b3073ffffffffffffffffffffffffffffffffffffffff168273ffffffffffffffffffffffffffffffffffffffff1614151515610aff57600080fd5b610b0933826111af565b1515610b1457600080fd5b610b1e8382610fe8565b1515610b2957600080fd5b610b3483838361121b565b505050565b60006003600083815260200190815260200160002060009054906101000a900473ffffffffffffffffffffffffffffffffffffffff169050600073ffffffffffffffffffffffffffffffffffffffff168173ffffffffffffffffffffffffffffffffffffffff1614151515610bad57600080fd5b919050565b6000600460008373ffffffffffffffffffffffffffffffffffffffff1673ffffffffffffffffffffffffffffffffffffffff168152602001908152602001600020549050919050565b6060600060606000806000610c0f87610bb2565b94506000851415610c52576000604051908082528060200260200182016040528015610c4a5781602001602082028038833980820191505090505b509550610d3e565b84604051908082528060200260200182016040528015610c815781602001602082028038833980820191505090505b509350610c8c610a49565b925060009150600190505b8281111515610d3a578673ffffffffffffffffffffffffffffffffffffffff166003600083815260200190815260200160002060009054906101000a900473ffffffffffffffffffffffffffffffffffffffff1673ffffffffffffffffffffffffffffffffffffffff161415610d2d57808483815181101515610d1657fe5b906020019060200201818152505081806001019250505b8080600101915050610c97565b8395505b5050505050919050565b6040805190810160405280600281526020017f425400000000000000000000000000000000000000000000000000000000000081525081565b60056020528060005260406000206000915054906101000a900473ffffffffffffffffffffffffffffffffffffffff1681565b600073ffffffffffffffffffffffffffffffffffffffff168273ffffffffffffffffffffffffffffffffffffffff1614151515610df057600080fd5b3073ffffffffffffffffffffffffffffffffffffffff168273ffffffffffffffffffffffffffffffffffffffff1614151515610e2b57600080fd5b610e353382610fe8565b1515610e4057600080fd5b610e4b33838361121b565b5050565b6000806000806000610e5f61168c565b600087815481101515610e6e57fe5b906000526020600020906003020160a060405190810160405290816000820160009054906101000a900473ffffffffffffffffffffffffffffffffffffffff1673ffffffffffffffffffffffffffffffffffffffff1673ffffffffffffffffffffffffffffffffffffffff1681526020016000820160149054906101000a900467ffffffffffffffff1667ffffffffffffffff1667ffffffffffffffff1681526020016001820160009054906101000a900467ffffffffffffffff1667ffffffffffffffff1667ffffffffffffffff1681526020016001820160089054906101000a900473ffffffffffffffffffffffffffffffffffffffff1673ffffffffffffffffffffffffffffffffffffffff1673ffffffffffffffffffffffffffffffffffffffff168152602001600282015481525050905080600001519550806020015194508060400151935080606001519250806080015191505091939590929450565b6000610fdf3385858561141d565b90509392505050565b60008273ffffffffffffffffffffffffffffffffffffffff166003600084815260200190815260200160002060009054906101000a900473ffffffffffffffffffffffffffffffffffffffff1673ffffffffffffffffffffffffffffffffffffffff1614905092915050565b816005600083815260200190815260200160002060006101000a81548173ffffffffffffffffffffffffffffffffffffffff021916908373ffffffffffffffffffffffffffffffffffffffff1602179055507f8c5be1e5ebec7d5bd14f71427d1e84f3dd0314c0f7b2291e5b200ac8c7c3b9256003600083815260200190815260200160002060009054906101000a900473ffffffffffffffffffffffffffffffffffffffff166005600084815260200190815260200160002060009054906101000a900473ffffffffffffffffffffffffffffffffffffffff1683604051808473ffffffffffffffffffffffffffffffffffffffff1673ffffffffffffffffffffffffffffffffffffffff1681526020018373ffffffffffffffffffffffffffffffffffffffff1673ffffffffffffffffffffffffffffffffffffffff168152602001828152602001935050505060405180910390a15050565b60008273ffffffffffffffffffffffffffffffffffffffff166005600084815260200190815260200160002060009054906101000a900473ffffffffffffffffffffffffffffffffffffffff1673ffffffffffffffffffffffffffffffffffffffff1614905092915050565b600460008373ffffffffffffffffffffffffffffffffffffffff1673ffffffffffffffffffffffffffffffffffffffff16815260200190815260200160002060008154809291906001019190505550816003600083815260200190815260200160002060006101000a81548173ffffffffffffffffffffffffffffffffffffffff021916908373ffffffffffffffffffffffffffffffffffffffff160217905550600073ffffffffffffffffffffffffffffffffffffffff168373ffffffffffffffffffffffffffffffffffffffff1614151561137957600460008473ffffffffffffffffffffffffffffffffffffffff1673ffffffffffffffffffffffffffffffffffffffff16815260200190815260200160002060008154809291906001900391905055506005600082815260200190815260200160002060006101000a81549073ffffffffffffffffffffffffffffffffffffffff02191690555b7f874370ad5ca44115925c3e74fee7dd1d909d92a630a6057a2f8e0c9a39f714c6838383604051808473ffffffffffffffffffffffffffffffffffffffff1673ffffffffffffffffffffffffffffffffffffffff1681526020018373ffffffffffffffffffffffffffffffffffffffff1673ffffffffffffffffffffffffffffffffffffffff168152602001828152602001935050505060405180910390a1505050565b600061142761168c565b60a0604051908101604052808773ffffffffffffffffffffffffffffffffffffffff1681526020014267ffffffffffffffff1681526020018667ffffffffffffffff1681526020018573ffffffffffffffffffffffffffffffffffffffff16815260200184815250905060016000829080600181540180825580915050906001820390600052602060002090600302016000909192909190915060008201518160000160006101000a81548173ffffffffffffffffffffffffffffffffffffffff021916908373ffffffffffffffffffffffffffffffffffffffff16021790555060208201518160000160146101000a81548167ffffffffffffffff021916908367ffffffffffffffff16021790555060408201518160010160006101000a81548167ffffffffffffffff021916908367ffffffffffffffff16021790555060608201518160010160086101000a81548173ffffffffffffffffffffffffffffffffffffffff021916908373ffffffffffffffffffffffffffffffffffffffff1602179055506080820151816002015550500391507ff5ec3a7ffc0d0536770f8011c8128ff5f8371b843779d1cf744189fb83a08fc886838787604051808573ffffffffffffffffffffffffffffffffffffffff1673ffffffffffffffffffffffffffffffffffffffff1681526020018481526020018367ffffffffffffffff1667ffffffffffffffff1681526020018273ffffffffffffffffffffffffffffffffffffffff1673ffffffffffffffffffffffffffffffffffffffff16815260200194505050505060405180910390a16116836000878461121b565b50949350505050565b60a060405190810160405280600073ffffffffffffffffffffffffffffffffffffffff168152602001600067ffffffffffffffff168152602001600067ffffffffffffffff168152602001600073ffffffffffffffffffffffffffffffffffffffff1681526020016000815250905600a165627a7a72305820a7ecf352d773f837ca7ac14386c8b49e2dfd170a52cccbfebc7862985bbb115d0029",
  "source": "pragma solidity ^0.4.23;\n\nimport \"./safemath.sol\";\nimport \"./ownable.sol\";\nimport \"./ERC721.sol\";\n\n\ncontract MyNonFungibleToken is ERC721 {\n  /*** CONSTANTS ***/\n\n  string public constant name = \"BlockTrack\";\n  string public constant symbol = \"BT\";\n\n  bytes4 constant InterfaceID_ERC165 =\n    bytes4(keccak256('supportsInterface(bytes4)'));\n\n  bytes4 constant InterfaceID_ERC721 =\n    bytes4(keccak256('name()')) ^\n    bytes4(keccak256('symbol()')) ^\n    bytes4(keccak256('totalSupply()')) ^\n    bytes4(keccak256('balanceOf(address)')) ^\n    bytes4(keccak256('ownerOf(uint256)')) ^\n    bytes4(keccak256('approve(address,uint256)')) ^\n    bytes4(keccak256('transfer(address,uint256)')) ^\n    bytes4(keccak256('transferFrom(address,address,uint256)')) ^\n    bytes4(keccak256('tokensOfOwner(address)'));\n\n\n  /*** DATA TYPES ***/\n\n  struct Token {\n    address mintedBy; // Address of token creator\n    uint64 mintedAt; // Time of token creation\n    uint64 shippingCompany; // Company that processes the shipment as first\n    address receivingAddress; // Public key of receiving party\n    uint256 receivingPostalAddress; // Stored as Json for easy handeling\n  }\n\n\n  /*** STORAGE ***/\n\n  // Array containing all the structs for all tokens in existince, id of the struct is the index in the array.\n  Token[] tokens;\n\n  // Array containing all the verified addresses for parcel receiving.\n  address[] verifiedAddresses;\n\n  // Array containing all the verified shipping company addresses.\n  address[] shippingCompanyAddresses;\n\n  // Mapping of all the \n  mapping (uint256 => address) public tokenIndexToOwner;\n  mapping (address => uint256) ownershipTokenCount;\n  mapping (uint256 => address) public tokenIndexToApproved;\n\n  /*** EVENTS ***/\n\n  event createParcel(address owner, uint256 tokenId, uint64 shippingCompany, address receivingAddress);\n  event handOff(address owner, address receiver, uint256 tokenId); //, uint64 location\n  event registerDeliverer(address deliverer, uint64 name, uint64 company);\n\n\n  /*** INTERNAL FUNCTIONS ***/\n\n  function _owns(address _claimant, uint256 _tokenId) internal view returns (bool) {\n    return tokenIndexToOwner[_tokenId] == _claimant;\n  }\n\n  function _approvedFor(address _claimant, uint256 _tokenId) internal view returns (bool) {\n    return tokenIndexToApproved[_tokenId] == _claimant;\n  }\n\n  function _approve(address _to, uint256 _tokenId) internal {\n    tokenIndexToApproved[_tokenId] = _to;\n\n    emit Approval(tokenIndexToOwner[_tokenId], tokenIndexToApproved[_tokenId], _tokenId);\n  }\n\n  function _transfer(address _from, address _to, uint256 _tokenId) internal {\n    ownershipTokenCount[_to]++;\n    tokenIndexToOwner[_tokenId] = _to;\n\n    if (_from != address(0)) {\n      ownershipTokenCount[_from]--;\n      delete tokenIndexToApproved[_tokenId];\n    }\n\n    emit handOff(_from, _to, _tokenId);\n  }\n\n  function _mint(address _owner, uint64 shippingCompany, address receivingAddress, uint256 receivingPostalAddress) internal returns (uint256 tokenId) {\n    Token memory token = Token({\n      mintedBy: _owner,\n      mintedAt: uint64(now),\n      shippingCompany: shippingCompany,\n      receivingAddress: receivingAddress,\n      receivingPostalAddress: receivingPostalAddress\n    });\n    tokenId = tokens.push(token) - 1;\n\n    emit createParcel(_owner, tokenId, shippingCompany, receivingAddress);\n\n    _transfer(0, _owner, tokenId);\n  }\n\n  /*** ERC721 IMPLEMENTATION ***/\n\n  function supportsInterface(bytes4 _interfaceID) external view returns (bool) {\n    return ((_interfaceID == InterfaceID_ERC165) || (_interfaceID == InterfaceID_ERC721));\n  }\n\n  function totalSupply() public view returns (uint256) {\n    return tokens.length;\n  }\n\n  function balanceOf(address _owner) public view returns (uint256) {\n    return ownershipTokenCount[_owner];\n  }\n\n  function ownerOf(uint256 _tokenId) external view returns (address owner) {\n    owner = tokenIndexToOwner[_tokenId];\n\n    require(owner != address(0));\n  }\n\n  function approve(address _to, uint256 _tokenId) external {\n    require(_owns(msg.sender, _tokenId));\n\n    _approve(_to, _tokenId);\n  }\n\n  function transfer(address _to, uint256 _tokenId) external {\n    require(_to != address(0));\n    require(_to != address(this));\n    require(_owns(msg.sender, _tokenId));\n\n    //require(_verified(_to))\n    // Hier moet checken of het receiver address verified is.\n\n    _transfer(msg.sender, _to, _tokenId);\n  }\n\n  function transferFrom(address _from, address _to, uint256 _tokenId) external {\n    require(_to != address(0));\n    require(_to != address(this));\n    require(_approvedFor(msg.sender, _tokenId));\n    require(_owns(_from, _tokenId));\n\n    _transfer(_from, _to, _tokenId);\n  }\n\n  function tokensOfOwner(address _owner) external view returns (uint256[]) {\n    uint256 balance = balanceOf(_owner);\n\n    if (balance == 0) {\n      return new uint256[](0);\n    } else {\n      uint256[] memory result = new uint256[](balance);\n      uint256 maxTokenId = totalSupply();\n      uint256 idx = 0;\n\n      uint256 tokenId;\n      for (tokenId = 1; tokenId <= maxTokenId; tokenId++) {\n        if (tokenIndexToOwner[tokenId] == _owner) {\n          result[idx] = tokenId;\n          idx++;\n        }\n      }\n    }\n\n    return result;\n  }\n\n  /*** OTHER EXTERNAL FUNCTIONS ***/\n\n  function mint(uint64 shippingCompany, address receivingAddress, uint256 receivingPostalAddress) external returns (uint256) {\n    return _mint(msg.sender, shippingCompany, receivingAddress, receivingPostalAddress);\n  }\n\n  function getToken(uint256 _tokenId) external view returns (address mintedBy, uint64 mintedAt, uint64 shippingCompany, address receivingAddress, uint256 receivingPostalAddress) {\n    Token memory token = tokens[_tokenId];\n\n    mintedBy = token.mintedBy;\n    mintedAt = token.mintedAt;\n    shippingCompany = token.shippingCompany;\n    receivingAddress = token.receivingAddress;\n    receivingPostalAddress = token.receivingPostalAddress;\n  }\n\n  // TODO: Function to add shpimentCompany to list (Don't forget to use event?)\n  // TODO: Function to register public key with company (Don't forget to hook to event)\n\n\n\n}",
  "sourcePath": "/Users/kevinvanhuit/Documents/blocktrack/contracts/mynonfungibletoken.sol",
  "compiler": {
    "name": "solc",
    "version": "0.4.23+commit.124ca40d.Emscripten.clang"
  },
  "schemaVersion": "2.0.0",
  "updatedAt": "2018-05-02T09:51:12.339Z"
}